:0601EC00011300011201E5
:10019700E4FFC2A9C2B5D2B420B2027F0D20B302D8
:1001A7007F0C20B20520B3027F17D2B5C2B420B2AC
:0A01B700027F1120B3027F10D2A9CD
:0101C100221B
:10016900E51370297513011201978F16E5166515A8
:10017900FF5516F514E516F45FF511851615E51406
:0E018900B40C0A0512E512B40303751201222C
:1001C200E512B40124900201E493F509A3E493FF3C
:1001D200F50AA3E493FEF50B750CFF750DFF900273
:0A01E2000BE493F50E8F0F8E102230
:10021400538EFB75D71875D6FC438E1043AF04D2AA
:02022400AF2207
:100048007DFF7C007F041200F2E4FDFC7F051200B6
:04005800F20202149A
:0B0226001200481201C212016980F8AA
:0300630002000395
:10000300C0E0C0F0C083C082C0D075D000C000C0C3
:1000130001C002C003C004C005C006C0070513E544
:1000230013B40A03751300120130D007D006D005AC
:10003300D004D003D002D001D000D0D0D082D0835E
:05004300D0F0D0E03216
:10020000C0F9A4B0999282F88090407924301912F4
:040210000278001060
:0D01F2000809FFFFFFFFFFFFFFFF010800EE
:1000F20053A01F8D80EF24FB601414601B14602238
:1001020024037026E5A0541F4480F5A0801CE5A0BE
:10011200541F44A0F5A08012E5A0541F44C0F5A0CE
:0E0122008008E5A0541F44E0F5A053A01F2262
:100130007DFF7C007F071200F274017E00A8080892
:100140008005C333CE33CED8F9FDAC067F0612004E
:10015000F274092508F8E6FD7C000F1200F205088C
:08016000E508B40803E4F5080A
:010168002274
:0300000002006695
:0C006600787FE4F6D8FD7581160200AD2D
:10007200020226E493A3F8E493A34003F68001F27C
:1000820008DFF48029E493A3F85407240CC8C3338F
:10009200C4540F4420C8834004F456800146F6DF5E
:1000A200E4800B01020408102040809001ECE47E01
:1000B200019360BCA3FF543F30E509541FFEE49353
:1000C200A360010ECF54C025E060A840B8E493A31A
:1000D200FAE493A3F8E493A3C8C582C8CAC583CA45
:1000E200F0A3C8C582C8CAC583CADFE9DEE780BEFD
:0101FF0000FF
:00000001FF
